{
  "contractName": "OrderChain",
  "abi": [
    {
      "anonymous": false,
      "inputs": [
        {
          "indexed": false,
          "internalType": "uint256",
          "name": "orderID",
          "type": "uint256"
        },
        {
          "indexed": false,
          "internalType": "address",
          "name": "user",
          "type": "address"
        },
        {
          "indexed": false,
          "internalType": "uint256",
          "name": "supplierID",
          "type": "uint256"
        },
        {
          "indexed": false,
          "internalType": "uint256",
          "name": "totalPrice",
          "type": "uint256"
        }
      ],
      "name": "OrderPlaced",
      "type": "event"
    },
    {
      "anonymous": false,
      "inputs": [
        {
          "indexed": false,
          "internalType": "uint256",
          "name": "orderID",
          "type": "uint256"
        },
        {
          "indexed": false,
          "internalType": "enum OrderChain.Status",
          "name": "status",
          "type": "uint8"
        }
      ],
      "name": "OrderStatusUpdated",
      "type": "event"
    },
    {
      "inputs": [],
      "name": "nextOrderID",
      "outputs": [
        {
          "internalType": "uint256",
          "name": "",
          "type": "uint256"
        }
      ],
      "stateMutability": "view",
      "type": "function",
      "constant": true
    },
    {
      "inputs": [
        {
          "internalType": "uint256",
          "name": "",
          "type": "uint256"
        },
        {
          "internalType": "uint256",
          "name": "",
          "type": "uint256"
        }
      ],
      "name": "orderDetails",
      "outputs": [
        {
          "internalType": "uint256",
          "name": "orderID",
          "type": "uint256"
        },
        {
          "internalType": "uint256",
          "name": "productID",
          "type": "uint256"
        },
        {
          "internalType": "string",
          "name": "productName",
          "type": "string"
        },
        {
          "internalType": "string",
          "name": "productDescription",
          "type": "string"
        },
        {
          "internalType": "uint256",
          "name": "quantity",
          "type": "uint256"
        },
        {
          "internalType": "uint256",
          "name": "price",
          "type": "uint256"
        }
      ],
      "stateMutability": "view",
      "type": "function",
      "constant": true
    },
    {
      "inputs": [
        {
          "internalType": "uint256",
          "name": "",
          "type": "uint256"
        }
      ],
      "name": "orders",
      "outputs": [
        {
          "internalType": "uint256",
          "name": "orderID",
          "type": "uint256"
        },
        {
          "internalType": "address",
          "name": "user",
          "type": "address"
        },
        {
          "internalType": "uint256",
          "name": "supplierID",
          "type": "uint256"
        },
        {
          "internalType": "uint256",
          "name": "date",
          "type": "uint256"
        },
        {
          "internalType": "uint256",
          "name": "deliveryDate",
          "type": "uint256"
        },
        {
          "internalType": "uint256",
          "name": "totalPrice",
          "type": "uint256"
        },
        {
          "internalType": "enum OrderChain.Status",
          "name": "status",
          "type": "uint8"
        }
      ],
      "stateMutability": "view",
      "type": "function",
      "constant": true
    },
    {
      "inputs": [
        {
          "internalType": "uint256",
          "name": "_supplierID",
          "type": "uint256"
        },
        {
          "internalType": "uint256",
          "name": "_deliveryDate",
          "type": "uint256"
        },
        {
          "internalType": "uint256",
          "name": "_totalPrice",
          "type": "uint256"
        },
        {
          "components": [
            {
              "internalType": "uint256",
              "name": "orderID",
              "type": "uint256"
            },
            {
              "internalType": "uint256",
              "name": "productID",
              "type": "uint256"
            },
            {
              "internalType": "string",
              "name": "productName",
              "type": "string"
            },
            {
              "internalType": "string",
              "name": "productDescription",
              "type": "string"
            },
            {
              "internalType": "uint256",
              "name": "quantity",
              "type": "uint256"
            },
            {
              "internalType": "uint256",
              "name": "price",
              "type": "uint256"
            }
          ],
          "internalType": "struct OrderChain.OrderDetail[]",
          "name": "_orderDetails",
          "type": "tuple[]"
        }
      ],
      "name": "placeOrder",
      "outputs": [],
      "stateMutability": "nonpayable",
      "type": "function"
    },
    {
      "inputs": [
        {
          "internalType": "uint256",
          "name": "_orderID",
          "type": "uint256"
        },
        {
          "internalType": "enum OrderChain.Status",
          "name": "_status",
          "type": "uint8"
        }
      ],
      "name": "updateOrderStatus",
      "outputs": [],
      "stateMutability": "nonpayable",
      "type": "function"
    },
    {
      "inputs": [
        {
          "internalType": "uint256",
          "name": "_orderID",
          "type": "uint256"
        }
      ],
      "name": "getOrder",
      "outputs": [
        {
          "components": [
            {
              "internalType": "uint256",
              "name": "orderID",
              "type": "uint256"
            },
            {
              "internalType": "address",
              "name": "user",
              "type": "address"
            },
            {
              "internalType": "uint256",
              "name": "supplierID",
              "type": "uint256"
            },
            {
              "internalType": "uint256",
              "name": "date",
              "type": "uint256"
            },
            {
              "internalType": "uint256",
              "name": "deliveryDate",
              "type": "uint256"
            },
            {
              "internalType": "uint256",
              "name": "totalPrice",
              "type": "uint256"
            },
            {
              "internalType": "enum OrderChain.Status",
              "name": "status",
              "type": "uint8"
            }
          ],
          "internalType": "struct OrderChain.Order",
          "name": "",
          "type": "tuple"
        }
      ],
      "stateMutability": "view",
      "type": "function",
      "constant": true
    },
    {
      "inputs": [
        {
          "internalType": "uint256",
          "name": "_orderID",
          "type": "uint256"
        }
      ],
      "name": "getOrderDetails",
      "outputs": [
        {
          "components": [
            {
              "internalType": "uint256",
              "name": "orderID",
              "type": "uint256"
            },
            {
              "internalType": "uint256",
              "name": "productID",
              "type": "uint256"
            },
            {
              "internalType": "string",
              "name": "productName",
              "type": "string"
            },
            {
              "internalType": "string",
              "name": "productDescription",
              "type": "string"
            },
            {
              "internalType": "uint256",
              "name": "quantity",
              "type": "uint256"
            },
            {
              "internalType": "uint256",
              "name": "price",
              "type": "uint256"
            }
          ],
          "internalType": "struct OrderChain.OrderDetail[]",
          "name": "",
          "type": "tuple[]"
        }
      ],
      "stateMutability": "view",
      "type": "function",
      "constant": true
    }
  ],
  "bytecode": "0x6080604052600160025534801561001557600080fd5b50611921806100256000396000f3fe608060405234801561001057600080fd5b506004361061007d5760003560e01c8063d09ef2411161005b578063d09ef241146100f0578063e9d8ba4714610120578063ec7dd7bb14610155578063f47a0acc146101855761007d565b8063a85c38ef14610082578063aab3196d146100b8578063be231fdf146100d4575b600080fd5b61009c60048036038101906100979190610c22565b6101a3565b6040516100af9796959493929190611139565b60405180910390f35b6100d260048036038101906100cd9190610c4b565b610212565b005b6100ee60048036038101906100e99190610cc3565b61039a565b005b61010a60048036038101906101059190610c22565b61061b565b60405161011791906110be565b60405180910390f35b61013a60048036038101906101359190610c87565b6107a6565b60405161014c969594939291906111d1565b60405180910390f35b61016f600480360381019061016a9190610c22565b61090f565b60405161017c919061105c565b60405180910390f35b61018d610b1d565b60405161019a91906110d9565b60405180910390f35b60006020528060005260406000206000915090508060000154908060010160009054906101000a900473ffffffffffffffffffffffffffffffffffffffff16908060020154908060030154908060040154908060050154908060060160009054906101000a900460ff16905087565b600082118015610223575060025482105b610262576040517f08c379a00000000000000000000000000000000000000000000000000000000081526004016102599061107e565b60405180910390fd5b600080600084815260200190815260200160002090503373ffffffffffffffffffffffffffffffffffffffff168160010160009054906101000a900473ffffffffffffffffffffffffffffffffffffffff1673ffffffffffffffffffffffffffffffffffffffff161461030a576040517f08c379a00000000000000000000000000000000000000000000000000000000081526004016103019061109e565b60405180910390fd5b818160060160006101000a81548160ff02191690836001811115610357577f4e487b7100000000000000000000000000000000000000000000000000000000600052602160045260246000fd5b02179055507fd9a86b644eb5f5b43cc8a700849852481080361c7a4b00ba646d1b46c5585f95838360405161038d9291906111a8565b60405180910390a1505050565b6040518060e0016040528060025481526020013373ffffffffffffffffffffffffffffffffffffffff1681526020018681526020014281526020018581526020018481526020016000600181111561041b577f4e487b7100000000000000000000000000000000000000000000000000000000600052602160045260246000fd5b81525060008060025481526020019081526020016000206000820151816000015560208201518160010160006101000a81548173ffffffffffffffffffffffffffffffffffffffff021916908373ffffffffffffffffffffffffffffffffffffffff16021790555060408201518160020155606082015181600301556080820151816004015560a0820151816005015560c08201518160060160006101000a81548160ff021916908360018111156104fc577f4e487b7100000000000000000000000000000000000000000000000000000000600052602160045260246000fd5b021790555090505060005b828290508110156105bc57600160006002548152602001908152602001600020838383818110610560577f4e487b7100000000000000000000000000000000000000000000000000000000600052603260045260246000fd5b90506020028101906105729190611297565b908060018154018082558091505060019003906000526020600020906006020160009091909190915081816105a79190611799565b505080806105b490611564565b915050610507565b507f59827a9898740dc87f0e01c9f27ae034611bb083f06d7eb3efaef27336e3c4dd6002543387866040516105f494939291906110f4565b60405180910390a16002600081548092919061060f90611564565b91905055505050505050565b610623610b23565b600082118015610634575060025482105b610673576040517f08c379a000000000000000000000000000000000000000000000000000000000815260040161066a9061107e565b60405180910390fd5b6000808381526020019081526020016000206040518060e0016040529081600082015481526020016001820160009054906101000a900473ffffffffffffffffffffffffffffffffffffffff1673ffffffffffffffffffffffffffffffffffffffff1673ffffffffffffffffffffffffffffffffffffffff168152602001600282015481526020016003820154815260200160048201548152602001600582015481526020016006820160009054906101000a900460ff166001811115610763577f4e487b7100000000000000000000000000000000000000000000000000000000600052602160045260246000fd5b600181111561079b577f4e487b7100000000000000000000000000000000000000000000000000000000600052602160045260246000fd5b815250509050919050565b600160205281600052604060002081815481106107c257600080fd5b9060005260206000209060060201600091509150508060000154908060010154908060020180546107f290611516565b80601f016020809104026020016040519081016040528092919081815260200182805461081e90611516565b801561086b5780601f106108405761010080835404028352916020019161086b565b820191906000526020600020905b81548152906001019060200180831161084e57829003601f168201915b50505050509080600301805461088090611516565b80601f01602080910402602001604051908101604052809291908181526020018280546108ac90611516565b80156108f95780601f106108ce576101008083540402835291602001916108f9565b820191906000526020600020905b8154815290600101906020018083116108dc57829003601f168201915b5050505050908060040154908060050154905086565b6060600082118015610922575060025482105b610961576040517f08c379a00000000000000000000000000000000000000000000000000000000081526004016109589061107e565b60405180910390fd5b60016000838152602001908152602001600020805480602002602001604051908101604052809291908181526020016000905b82821015610b1257838290600052602060002090600602016040518060c001604052908160008201548152602001600182015481526020016002820180546109db90611516565b80601f0160208091040260200160405190810160405280929190818152602001828054610a0790611516565b8015610a545780601f10610a2957610100808354040283529160200191610a54565b820191906000526020600020905b815481529060010190602001808311610a3757829003601f168201915b50505050508152602001600382018054610a6d90611516565b80601f0160208091040260200160405190810160405280929190818152602001828054610a9990611516565b8015610ae65780601f10610abb57610100808354040283529160200191610ae6565b820191906000526020600020905b815481529060010190602001808311610ac957829003601f168201915b505050505081526020016004820154815260200160058201548152505081526020019060010190610994565b505050509050919050565b60025481565b6040518060e0016040528060008152602001600073ffffffffffffffffffffffffffffffffffffffff1681526020016000815260200160008152602001600081526020016000815260200160006001811115610ba8577f4e487b7100000000000000000000000000000000000000000000000000000000600052602160045260246000fd5b81525090565b60008083601f840112610bc057600080fd5b8235905067ffffffffffffffff811115610bd957600080fd5b602083019150836020820283011115610bf157600080fd5b9250929050565b600081359050610c07816118bf565b92915050565b600081359050610c1c816118cf565b92915050565b600060208284031215610c3457600080fd5b6000610c4284828501610c0d565b91505092915050565b60008060408385031215610c5e57600080fd5b6000610c6c85828601610c0d565b9250506020610c7d85828601610bf8565b9150509250929050565b60008060408385031215610c9a57600080fd5b6000610ca885828601610c0d565b9250506020610cb985828601610c0d565b9150509250929050565b600080600080600060808688031215610cdb57600080fd5b6000610ce988828901610c0d565b9550506020610cfa88828901610c0d565b9450506040610d0b88828901610c0d565b935050606086013567ffffffffffffffff811115610d2857600080fd5b610d3488828901610bae565b92509250509295509295909350565b6000610d4f8383610f20565b905092915050565b610d6081611341565b82525050565b610d6f81611341565b82525050565b6000610d80826112e0565b610d8a818561130e565b935083602082028501610d9c856112bb565b8060005b85811015610dd85784840389528151610db98582610d43565b9450610dc483611301565b925060208a01995050600181019050610da0565b50829750879550505050505092915050565b610df3816113b3565b82525050565b610e02816113b3565b82525050565b6000610e13826112f6565b610e1d818561131f565b9350610e2d8185602086016114e3565b610e36816116a7565b840191505092915050565b6000610e4c826112f6565b610e568185611330565b9350610e668185602086016114e3565b610e6f816116a7565b840191505092915050565b6000610e87601083611330565b91507f496e76616c6964206f72646572204944000000000000000000000000000000006000830152602082019050919050565b6000610ec7603883611330565b91507f4f6e6c792074686520757365722077686f20706c6163656420746865206f726460008301527f65722063616e20757064617465206974732073746174757300000000000000006020830152604082019050919050565b600060c083016000830151610f38600086018261103e565b506020830151610f4b602086018261103e565b5060408301518482036040860152610f638282610e08565b91505060608301518482036060860152610f7d8282610e08565b9150506080830151610f92608086018261103e565b5060a0830151610fa560a086018261103e565b508091505092915050565b60e082016000820151610fc6600085018261103e565b506020820151610fd96020850182610d57565b506040820151610fec604085018261103e565b506060820151610fff606085018261103e565b506080820151611012608085018261103e565b5060a082015161102560a085018261103e565b5060c082015161103860c0850182610dea565b50505050565b61104781611386565b82525050565b61105681611386565b82525050565b600060208201905081810360008301526110768184610d75565b905092915050565b6000602082019050818103600083015261109781610e7a565b9050919050565b600060208201905081810360008301526110b781610eba565b9050919050565b600060e0820190506110d36000830184610fb0565b92915050565b60006020820190506110ee600083018461104d565b92915050565b6000608082019050611109600083018761104d565b6111166020830186610d66565b611123604083018561104d565b611130606083018461104d565b95945050505050565b600060e08201905061114e600083018a61104d565b61115b6020830189610d66565b611168604083018861104d565b611175606083018761104d565b611182608083018661104d565b61118f60a083018561104d565b61119c60c0830184610df9565b98975050505050505050565b60006040820190506111bd600083018561104d565b6111ca6020830184610df9565b9392505050565b600060c0820190506111e6600083018961104d565b6111f3602083018861104d565b81810360408301526112058187610e41565b905081810360608301526112198186610e41565b9050611228608083018561104d565b61123560a083018461104d565b979650505050505050565b6000808335600160200384360303811261125957600080fd5b80840192508235915067ffffffffffffffff82111561127757600080fd5b60208301925060018202360383131561128f57600080fd5b509250929050565b60008235600160c0038336030381126112af57600080fd5b80830191505092915050565b6000819050602082019050919050565b60008190508160005260206000209050919050565b600081519050919050565b600082905092915050565b600081519050919050565b6000602082019050919050565b600082825260208201905092915050565b600082825260208201905092915050565b600082825260208201905092915050565b600061134c82611366565b9050919050565b6000819050611361826118ab565b919050565b600073ffffffffffffffffffffffffffffffffffffffff82169050919050565b6000819050919050565b5b818110156113af576113a46000826116df565b600181019050611391565b5050565b60006113be82611353565b9050919050565b60006113d082611386565b9050919050565b6113e183836112eb565b67ffffffffffffffff8111156113fa576113f9611658565b5b6114048254611516565b600080601f8411601f841117156114215761141e856112cb565b90505b601f831115611454576020601f85010481016020851015611440578190505b6114526020601f860104830182611390565b505b601f841160018114611481576000851561146f578388013590505b6114798682611548565b8755506114d9565b601f1985168260005b828110156114af57858a0135825560018201915060208601955060208101905061148a565b878310156114cc57858a01356114c8601f8a16826115ad565b8355505b6001600289020189555050505b5050505050505050565b60005b838110156115015780820151818401526020810190506114e6565b83811115611510576000848401525b50505050565b6000600282049050600182168061152e57607f821691505b6020821081141561154257611541611629565b5b50919050565b600061155483836115ad565b9150826002028217905092915050565b600061156f82611386565b91507fffffffffffffffffffffffffffffffffffffffffffffffffffffffffffffffff8214156115a2576115a16115cb565b5b600182019050919050565b60006115be600019846008026116d2565b1980831691505092915050565b7f4e487b7100000000000000000000000000000000000000000000000000000000600052601160045260246000fd5b7f4e487b7100000000000000000000000000000000000000000000000000000000600052602160045260246000fd5b7f4e487b7100000000000000000000000000000000000000000000000000000000600052602260045260246000fd5b7f4e487b7100000000000000000000000000000000000000000000000000000000600052604160045260246000fd5b6000819050919050565b6000813561169e816118cf565b80915050919050565b6000601f19601f8301169050919050565b60008160001b9050919050565b600082821b905092915050565b600082821c905092915050565b6116f16116ea6118e6565b8383611886565b5050565b60007fffffffffffffffffffffffffffffffffffffffffffffffffffffffffffffffff611721846116b8565b9350801983169250808416831791505092915050565b6000600883026117677fffffffffffffffffffffffffffffffffffffffffffffffffffffffffffffffff826116c5565b61177186836116c5565b95508019841693508086168417925050509392505050565b6117948383836113d7565b505050565b6000810160008301806117ab81611691565b90506117b78184611863565b5050506001810160208301806117cc81611691565b90506117d88184611863565b50505060028101604083016117ed8185611240565b6117f8818386611789565b50505050600381016060830161180e8185611240565b611819818386611789565b5050505060048101608083018061182f81611691565b905061183b8184611863565b5050506005810160a083018061185081611691565b905061185c8184611863565b5050505050565b61186c826113c5565b61187f61187882611687565b83546116f5565b8255505050565b61188f836113c5565b6118a361189b82611687565b848454611737565b825550505050565b600281106118bc576118bb6115fa565b5b50565b600281106118cc57600080fd5b50565b6118d881611386565b81146118e357600080fd5b50565b60009056fea2646970667358221220cff369442312858da697a1a674280f3a4d0a42bdd1f357909f66f7f93e41140d64736f6c63430008000033",
  "immutableReferences": {},
  "source": "// contracts/OrderChain.sol\r\n\r\n// SPDX-License-Identifier: MIT\r\npragma solidity ^0.8.0;\r\n\r\ncontract OrderChain {\r\n    enum Status { Pending, Confirmed }\r\n\r\n    struct Order {\r\n        uint orderID;\r\n        address user;\r\n        uint supplierID;\r\n        uint date;\r\n        uint deliveryDate;\r\n        uint totalPrice;\r\n        Status status;\r\n    }\r\n\r\n    struct OrderDetail {\r\n        uint orderID;\r\n        uint productID;\r\n        string productName;\r\n        string productDescription;\r\n        uint quantity;\r\n        uint price;\r\n    }\r\n\r\n    mapping(uint => Order) public orders;\r\n    mapping(uint => OrderDetail[]) public orderDetails;\r\n    uint public nextOrderID = 1;\r\n\r\n    event OrderPlaced(uint orderID, address user, uint supplierID, uint totalPrice);\r\n    event OrderStatusUpdated(uint orderID, Status status);\r\n\r\n    function placeOrder(\r\n        uint _supplierID,\r\n        uint _deliveryDate,\r\n        uint _totalPrice,\r\n        OrderDetail[] calldata _orderDetails\r\n    ) external {\r\n        orders[nextOrderID] = Order({\r\n            orderID: nextOrderID,\r\n            user: msg.sender,\r\n            supplierID: _supplierID,\r\n            date: block.timestamp,\r\n            deliveryDate: _deliveryDate,\r\n            totalPrice: _totalPrice,\r\n            status: Status.Pending\r\n        });\r\n\r\n        for (uint i = 0; i < _orderDetails.length; i++) {\r\n            orderDetails[nextOrderID].push(_orderDetails[i]);\r\n        }\r\n\r\n        emit OrderPlaced(nextOrderID, msg.sender, _supplierID, _totalPrice);\r\n        nextOrderID++;\r\n    }\r\n\r\n    function updateOrderStatus(uint _orderID, Status _status) external {\r\n        require(_orderID > 0 && _orderID < nextOrderID, \"Invalid order ID\");\r\n        Order storage order = orders[_orderID];\r\n        require(order.user == msg.sender, \"Only the user who placed the order can update its status\");\r\n\r\n        order.status = _status;\r\n        emit OrderStatusUpdated(_orderID, _status);\r\n    }\r\n\r\n    function getOrder(uint _orderID) external view returns (Order memory) {\r\n        require(_orderID > 0 && _orderID < nextOrderID, \"Invalid order ID\");\r\n        return orders[_orderID];\r\n    }\r\n\r\n    function getOrderDetails(uint _orderID) external view returns (OrderDetail[] memory) {\r\n        require(_orderID > 0 && _orderID < nextOrderID, \"Invalid order ID\");\r\n        return orderDetails[_orderID];\r\n    }\r\n}\r\n",
  "sourcePath": "C:\\Users\\User\\OneDrive - UOW Malaysia KDU\\Documents\\Enterprise Information System\\Semester 9\\XBFP_3026N Final Year Project (Part 2)\\WoodChain - Complete Function with Integration Blockchain\\contracts\\OrderChain.sol",
  "compiler": {
    "name": "solc",
    "version": "0.8.0+commit.c7dfd78e.Emscripten.clang"
  },
  "schemaVersion": "3.4.16",
  "updatedAt": "2024-06-11T05:35:06.996Z",
  "networkType": "ethereum",
  "devdoc": {
    "kind": "dev",
    "methods": {},
    "version": 1
  },
  "userdoc": {
    "kind": "user",
    "methods": {},
    "version": 1
  }
}